{
  "contractName": "hashfunc",
  "abi": [
    {
      "constant": true,
      "inputs": [],
      "name": "hashfunc",
      "outputs": [
        {
          "internalType": "uint256",
          "name": "",
          "type": "uint256"
        }
      ],
      "payable": false,
      "stateMutability": "view",
      "type": "function"
    }
  ],
  "bytecode": "0x608060405260008055348015601357600080fd5b506084806100226000396000f3fe6080604052348015600f57600080fd5b506004361060285760003560e01c80635718203c14602d575b600080fd5b60336049565b6040518082815260200191505060405180910390f35b6000548156fea265627a7a72315820f860b6b7a1c83e8d567be0338e0756852df7e0119cadd0efb3e5c8afdccf37d864736f6c63430005100032",
  "source": "pragma solidity^0.5.0;\n\ncontract hashfunc{\n    uint public hashfunc  = 0;}\n    \n",
  "sourcePath": "/home/manas/cool_stuff/caffeine/contracts/hashfunc.sol",
  "compiler": {
    "name": "solc",
    "version": "0.5.16+commit.9c3226ce.Emscripten.clang"
  },
  "schemaVersion": "3.4.1",
  "updatedAt": "2021-06-18T11:09:42.979Z",
  "networkType": "ethereum",
  "devdoc": {
    "methods": {}
  },
  "userdoc": {
    "methods": {}
  }
}